:100000000C94E2000C94FF000C94FF000C94FF0091
:100010000C94FF000C94FF000C94FF000C94FF0064
:100020000C94FF000C94FF000C94FF000C94FF0054
:100030000C94FF000C94FF000C94FF000C94FF0044
:100040000C94FF000C94FF000C94FF000C94FF0034
:100050000C94FF000C94FF000C94FF000C94FF0024
:100060000C94FF000C94FF0008000000BE9224498D
:10007000123EABAAAA2ABECDCCCC4C3E00000080DA
:10008000BEABAAAAAA3E00000000BF000000803F4D
:100090000000000000084178D3BB4387D1133D190D
:1000A0000E3CC3BD4282AD2B3E68EC8276BED98F3A
:1000B000E1A93E4C80EFFFBE01C4FF7F3F0000007E
:1000C00000006E616E00696E660000407A10F35A9F
:1000D00000A0724E18090010A5D4E80000E8764888
:1000E000170000E40B54020000CA9A3B000000E134
:1000F000F505000080969800000040420F000000C7
:10010000A08601000000102700000000E8030000A6
:1001100000006400000000000A0000000000010070
:10012000000000002C76D888DC674F0823DFC1DF91
:10013000AE59E1B1B796E5E3E453C63AE651997694
:1001400096E8E6C28426EB898C9B62ED407C6FFCCE
:10015000EFBC9C9F40F2BAA56FA5F490055A2AF710
:100160005C936B6CF9676DC11BFCE0E40D47FEF519
:1001700020E6B500D0ED902E030094357705008081
:10018000841E080000204E0A000000C80C333333E0
:10019000330F986E12831141EF8D2114893BE65580
:1001A00016CFFEE6DB18D1844B381BF77C1D901D63
:1001B000A4BBE424203284725E228100C9F124ECC5
:1001C000A1E53D2711241FBECFEFD8E0DEBFCDBF94
:1001D00011E0A0E0B1E0E6E7F9E102C005900D9280
:1001E000AA37B107D9F713E0AAE7B1E001C01D9221
:1001F000AB32B107E1F70E94F7030C94B90C0C94F1
:10020000000084B5836884BD85B5816085BD16BC5A
:1002100017BC569A08951092C50087E68093C400D3
:1002200088E18093C10086E08093C2000895282F62
:100230008091B8019091B901892B39F48091C00067
:1002400085FFFCCF2093C60008958091B80190915E
:10025000B901019729F58091BA01843618F48F5FAE
:100260008093BA019091BB018091BA01981781F0F7
:10027000E92FF0E0E853FE4F80818093C600892F7C
:100280008F5F8093BB018F3F39F41092BB0104C094
:100290001092BB011092BA011092B9011092B801EC
:1002A0000895E091BA01F0E0E853FE4F80830E9488
:1002B00017018091BA018F3F11F41092BA0108958D
:1002C0006F927F928F929F92AF92BF92CF92DF9266
:1002D000EF92FF920F931F93CF93DF933B014C015B
:1002E000C0919601D0919701D0939501C09394014C
:1002F000C530D1050CF0A9C0C430D10531F481E07E
:1003000090E090939301809392018091920190915B
:100310009301019709F06CC0FE01EE0FFF1FEE0F75
:10032000FF1FE456FE4FA080B180C280D380C6017B
:10033000B50120E030E040E050E00E947808181657
:10034000E4F0E0909801F090990100919A011091E9
:100350009B01C801B70120E030E040E050E00E947E
:100360007808181634F5C801B70120E030E040E005
:1003700050E00E94150A18166CF1C601B50120E084
:1003800030E040E050E00E94150A18168CF5E0902D
:100390009801F090990100919A0110919B01C80178
:1003A000B70120E030E040E050E00E94150A181646
:1003B0003CF4C801B701A60195010E94130810C0C2
:1003C000C801B70120E030E040E050E00E9478082A
:1003D000181674F0C801B701A60195010E9414080F
:1003E000609398017093990180939A0190939B0177
:1003F000FE01EE0FFF1FEE0FFF1FE456FE4F60825F
:10040000718282829382C401B3012091980130915C
:10041000990140919A0150919B010E9414086093A8
:1004200098017093990180939A0190939B0120E029
:1004300030E040EA50E40E947C0860938E017093A3
:100440008F018093900190939101CE01019690933A
:10045000970180939601059724F0109297011092CE
:100460009601DF91CF911F910F91FF90EF90DF9058
:10047000CF90BF90AF909F908F907F906F90089596
:10048000AF92BF92CF92DF92EF92FF920F931F93A2
:10049000EAE7F0E080818064808360917800709169
:1004A000790080E090E00E9410099B01AC0160930C
:1004B000B0017093B1018093B2019093B30160EFEA
:1004C00078E18CE19BE40E947C0820E030E44CE180
:1004D00056E40E9413080E941E0A7B018C0123E748
:1004E0003FE745E759E30E945E0A2BEE3FEF43E901
:1004F0005AE30E9414085B016C01C801B70129E5A9
:1005000037E44CEB53E30E945E0AA80197010E9476
:100510005E0AA80197010E945E0A9B01AC01C60118
:10052000B5010E9414089B01AC0160E070E080E816
:100530009FE30E947C0823E333E948E853E40E94E8
:1005400013089B01AC012093B4013093B501409393
:10055000B6015093B7010E9460011F910F91FF9067
:10056000EF90DF90CF90BF90AF90089581E480939B
:100570007C008FE880937A0082E080937E000E9466
:10058000400208951F93CF93DF9381E090E0909312
:10059000B9018093B80110E0C7ECD2E006C0A953BE
:1005A000BD4F8C910E9451011F5FFE010190002000
:1005B000E9F73197E75CF240A12FB0E0AE17BF0733
:1005C00070F38091C00085FF02C01092C600DF91D9
:1005D000CF911F910895AF92BF92CF92DF92EF9289
:1005E000FF920F931F93CF93DF93CDB7DEB764973E
:1005F0000FB6F894DEBF0FBECDBFADB7BEB7119634
:10060000E7ECF2E0FA83E983E0E0F1E01396FC9393
:10061000EE93129714966D937D938D939C931797F9
:1006200018962D933D934D935C931B971C96ED92DA
:10063000FD920D931C931F975096AD92BD92CD9253
:10064000DC9253970E94370CEDB7FEB774960FB645
:10065000F894FEBF0FBEEDBF0E94C202DF91CF91A2
:100660001F910F91FF90EF90DF90CF90BF90AF90D0
:100670000895EF92FF920F931F9320E030E040E047
:1006800053E40E945E0A2AE037ED43E25CE30E94F5
:100690005E0A0E944D097B018C016093BC0170933E
:1006A000BD018093BE019093BF0120E030E040E0A7
:1006B00053E40E94150A18162CF480E090E0A0E0A4
:1006C000B3E40EC0C801B70120E030E040E050E0E4
:1006D0000E947808882364F480E090E0A0E0B0E015
:1006E0008093BC019093BD01A093BE01B093BF0164
:1006F0006091BC017091BD018091BE019091BF01DC
:100700000E94E40867BD1F910F91FF90EF9008953C
:10071000AF92BF92CF92DF92EF92FF920F931F930F
:100720009B01AC0160917A0170917B0180917C0109
:1007300090917D010E9413087B018C0160938201DE
:1007400070938301809384019093850120917E01B1
:1007500030917F0140918001509181010E941308E6
:100760005B016C0160938A0170938B0180938C0113
:1007700090938D01C801B70120E030E044E352E4DA
:100780000E945E0A7B018C01C601B50120E030E0C9
:1007900040E85EE30E945E0A9B01AC01C801B7011C
:1007A0000E9414089B01AC012093860130938701BD
:1007B00040938801509389010E94390380918201FE
:1007C00090918301A0918401B091850180937E0175
:1007D00090937F01A0938001B09381011F910F91AD
:1007E000FF90EF90DF90CF90BF90AF900895AF92C1
:1007F000BF92CF92DF92EF92FF920F931F93CF930E
:10080000DF930E9401011092C50087E68093C40027
:1008100088E18093C10086E08093C2000E94B60206
:10082000C4EFD1E00E9440028091C0019091C101CB
:10083000883C91052CF401969093C1018093C001EE
:100840008091C0019091C10182339105F9F46091CA
:100850008E0170918F018091900190919101609330
:10086000C2017093C3018093C4019093C50120E03D
:1008700030E048EC51E40E94140860937A017093D0
:100880007B0180937C0190937D0111C0883C910590
:1008900074F0D093C101C093C00160918E0170913A
:1008A0008F0180919001909191010E948803809125
:1008B000C6019091C7012FE18034920734F401966C
:1008C0009093C7018093C601ADCF6091C201709132
:1008D000C3018091C4019091C50120917A013091AA
:1008E0007B0140917C0150917D01E0908E01F09060
:1008F0008F010091900110919101A090BC01B090E6
:10090000BD01C090BE01D090BF010E94EB021092C9
:10091000C7011092C60186CFA1E1B0E0E2E9F4E0A0
:100920000C94E60A3C017F876E876A01FC011782FE
:100930001682838181FD03C06FEF7FEF6FC39E013D
:100940002F5F3F4F398B288BF3012381EE85FF8585
:1009500023FD859123FF8191FF87EE87882309F48A
:100960005AC3853251F4EE85FF8523FD859123FF1F
:100970008191FF87EE87853229F490E0B3010E94D0
:100980000B0CE2CF982F10E0882499241032B0F499
:100990009B3269F09C3228F4903251F0933271F41A
:1009A0000BC09D3239F0903349F4116028C01260B9
:1009B000146025C0186023C0106121C017FD2AC033
:1009C000892F80538A3078F416FF06C0FAE09F9E84
:1009D000902C1124980E13C03AE0839E802C112491
:1009E000880E10620CC09E3221F416FD14C31064F0
:1009F00006C09C3611F4106802C0983659F4EE8592
:100A0000FF8523FD959123FF9191FF87EE87992321
:100A100009F0BCCF892F8554833020F4812F806169
:100A2000905E07C0892F8556833008F09FC1812FC3
:100A30008F7E86FD02C076E0972E6FE3F62EF822B9
:100A4000953619F4F0E4FF2A07C0963619F420E829
:100A5000F22A02C091109A94F7FE0AC03BE33915BE
:100A600018F45CE3B52E02C0B92CB39427E009C09A
:100A700047E0491520F4BB2447E0942EF7CF292DF9
:100A8000BB24C60104969D878C87F6016081718125
:100A900082819381AE014F5F5F4F0B2D0E941D0B32
:100AA0006C010981202E332400FF04C003FD02C025
:100AB0001DE209C0F1FE02C01BE205C0F2FC02C04B
:100AC00010E001C010E2C1018C709070892BB9F167
:100AD000112311F483E001C084E0881510F088240C
:100AE0000AC0881AF3FC07C080E290E0B3010E94BC
:100AF0000B0C8A94C9F7112329F0812F90E0B301E0
:100B00000E940B0C23FE03C002EC10E00EC006ECAA
:100B100010E00BC0E114F10409F0805290E0B30141
:100B20000E940B0C0F5F1F4F05C0EF2CFF24F0E15C
:100B3000EF22FF24F8018491882361F714C1F7FEA6
:100B400012C0BC0C24FE04C08A81813309F4BA941B
:100B50001B141CF0BB24B3942DC0F8E0FB1550F51A
:100B600038E0B32E27C0F6FC25C0892D90E08C1507
:100B70009D054CF02CEFC2162FEFD20624F030E882
:100B8000F32A01C09A94992049F0E2E0F0E0EC0FDA
:100B9000FD1FE90DF11D80818033A1F3F7FE0AC02E
:100BA000B92CB394892D90E0C816D90614F0992475
:100BB00001C09C18F7FC03C025E030E009C01C14FC
:100BC0001D041CF021E030E003C096012F5F3F4F71
:100BD000112311F02F5F3F4F992029F0892D90E0CC
:100BE0000196280F391F882D90E02817390714F037
:100BF000882401C0821A4F2C5524C201897090703C
:100C0000892B39F008C080E290E0B3010E940B0C00
:100C10008A948820C1F7112329F0812F90E0B30135
:100C20000E940B0C43FE07C008C080E390E0B301B4
:100C30000E940B0C8A948820C1F7F7FE46C08601FB
:100C4000D7FE02C000E010E076010894E11CF11C20
:100C5000E01AF10A41E050E04C0F5D1FE40EF51E72
:100C600026014B185108892D90E0AA24BB24A81A0C
:100C7000B90A5FEF0F3F150729F48EE290E0B30148
:100C80000E940B0CC016D10634F0401651061CF41D
:100C9000F701808101C080E3015010400894E11CFD
:100CA000F11C0A151B052CF090E0B3010E940B0CFF
:100CB000E0CF0C151D0539F49A81963318F495335D
:100CC00011F424FE81E390E04BC08A81813309F066
:100CD0000F7E90E0B3010E940B0C9920A1F08EE2F0
:100CE00090E0B3010E940B0C12E0E1E0F0E0EC0FA9
:100CF000FD1FE10FF11D1F5F808190E0B3010E9495
:100D00000B0C9A9491F744FC03C085E690E002C076
:100D100085E490E0B3010E940B0CD7FC05C0C11420
:100D2000D10441F404FF06C0D094C194D108D394F7
:100D30008DE201C08BE290E0B3010E940B0C80E3D6
:100D400005C08F5F26EF3FEFC20ED31E3AE0C316F9
:100D5000D104BCF790E0B3010E940B0CC601C09611
:100D6000B3010E940B0CCC84DD8452C1933631F068
:100D7000933799F0933509F059C023C0F60180816B
:100D800089835E010894A11CB11C22E030E0C20EF0
:100D9000D31E21E0E22EF12C12C0F601A080B1801A
:100DA00016FD03C06FEF7FEF02C0692D70E022E0F7
:100DB00030E0C20ED31EC5010E94000C7C011F77DB
:100DC00013C0F601A080B18016FD03C06FEF7FEF66
:100DD00002C0692D70E022E030E0C20ED31EC501D2
:100DE0000E94F50B7C01106813FF07C01BC080E256
:100DF00090E0B3010E940B0C8A94882D90E0E816D5
:100E0000F906A8F30FC0F50117FD859117FF819131
:100E10005F0190E0B3010E940B0C81108A9408944A
:100E2000E108F108E114F10471F7F2C0943611F011
:100E3000993689F517FF08C0F6012081318142817A
:100E4000538184E090E00AC0F601808191819C0189
:100E5000442737FD4095542F82E090E0C80ED91EFC
:100E60009FE6F92EF12257FF09C050954095309525
:100E700021953F4F4F4F5F4F90E8F92ACA01B901C2
:100E8000AE014F5F5F4F2AE030E00E945B0CE82E1E
:100E9000E889EE1A41C0953721F41F7E2AE030E040
:100EA0001CC0197F9F3661F0903720F4983509F007
:100EB000B2C00FC0903739F0983709F0ACC004C009
:100EC00028E030E00AC0106114FD146020E130E039
:100ED00004C014FD166020E132E017FF08C0F601DF
:100EE000608171818281938144E050E008C0F60105
:100EF00080819181BC0180E090E042E050E0C40E2E
:100F0000D51EAE014F5F5F4F0E945B0CE82E5889E3
:100F1000E51A8FE7F82EF122F6FE0BC08EEFF822CD
:100F2000E91438F4F4FE07C0F2FC05C09FEEF92284
:100F300002C01E2D01C0192DF4FE0DC0FE01EE0DE4
:100F4000F11D8081803319F4E9EEFE2208C01F5F95
:100F5000F2FE05C003C08F2D867809F01F5F0F2DAC
:100F6000F3FC14C0F0FE0FC0181510F09E2C0BC03F
:100F70009E2C980C911A182D06C080E290E0B301C7
:100F80000E940B0C1F5F1815C0F304C0181510F455
:100F9000811A01C0882404FF0FC080E390E0B301F0
:100FA0000E940B0C02FF1DC001FD03C088E790E00A
:100FB0000EC088E590E00BC0802F867891F001FF8D
:100FC00002C08BE201C080E2F7FC8DE290E0B30149
:100FD0000E940B0C06C080E390E0B3010E940B0C52
:100FE0009A94E914C0F3EA94E1E0F0E0EC0FFD1FFD
:100FF000EE0DF11D808190E0B3010E940B0CEE20FC
:1010000091F706C080E290E0B3010E940B0C8A9435
:101010008820C1F799CCF30166817781CB01619675
:10102000E2E10C94020B5058BB27AA270ED0ACC1AA
:101030009DD130F0A2D120F031F49F3F11F41EF485
:1010400092C10EF4E095E7FB5FC1E92FAED180F3CA
:10105000BA17620773078407950718F071F49EF5B5
:10106000DDC10EF4E0950B2EBA2FA02D0B01B901B6
:1010700090010C01CA01A0011124FF27591B99F00E
:10108000593F50F4503E68F11A16F040A22F232F1A
:10109000342F4427585FF3CF469537952795A7956A
:1010A000F0405395C9F77EF41F16BA0B620B730B11
:1010B000840BBAF09150A1F0FF0FBB1F661F771F82
:1010C000881FC2F70EC0BA0F621F731F841F48F437
:1010D000879577956795B795F7959E3F08F0B3CFBD
:1010E0009395880F08F09927EE0F979587950895A7
:1010F000E7D008F481E008950CD046C13ED140F01D
:1011000035D130F021F45F3F19F0FEC0511187C195
:101110002AC14BD198F39923C9F35523B1F3951BF9
:10112000550BBB27AA2762177307840738F09F5F08
:101130005F4F220F331F441FAA1FA9F333D00E2E77
:101140003AF0E0E830D091505040E695001CCAF7E4
:1011500029D0FE2F27D0660F771F881FBB1F2617A9
:1011600037074807AB07B0E809F0BB0B802DBF017C
:10117000FF2793585F4F2AF09E3F510568F0C4C087
:101180004EC15F3FECF3983EDCF38695779567950B
:10119000B795F7959F5FC9F7880F911D969587952D
:1011A00097F90895E1E0660F771F881FBB1F62174C
:1011B00073078407BA0720F0621B730B840BBA0B0A
:1011C000EE1F88F7E0950895F8D088F09F5790F0CB
:1011D000B92F9927B751A0F0D1F0660F771F881F5C
:1011E000991F1AF0BA95C9F712C0B13081F016D123
:1011F000B1E0089513C1672F782F8827B85F39F0C1
:10120000B93FCCF3869577956795B395D9F73EF4BA
:1012100090958095709561957F4F8F4F9F4F089562
:10122000E89409C097FB3EF4909580957095619580
:101230007F4F8F4F9F4F9923A9F0F92F96E9BB2736
:101240009395F695879577956795B795F111F8CFB2
:10125000FAF4BB0F11F460FF1BC06F5F7F4F8F4F1D
:101260009F4F16C0882311F096E911C0772321F013
:101270009EE8872F762F05C0662371F096E8862FAB
:1012800070E060E02AF09A95660F771F881FDAF702
:10129000880F9695879597F90895A9D080F09F3784
:1012A00040F491110EF0BBC060E070E080E89FEB6D
:1012B000089526F41B16611D711D811D2BC045C0AC
:1012C000990F0008550FAA0BE0E8FEEF1616170657
:1012D000E807F907C0F012161306E407F50798F0BF
:1012E000621B730B840B950B39F40A2661F0232BD8
:1012F000242B252B21F408950A2609F4A140A69554
:101300008FEF811D811D089597F99F6780E870E038
:1013100060E00895882371F4772321F09850872B9B
:10132000762F07C0662311F499270DC09051862BA4
:1013300070E060E02AF09A95660F771F881FDAF751
:10134000880F9695879597F908959F3F31F09150B2
:1013500020F4879577956795B795880F911D969599
:10136000879597F908959FEF80EC089500240A94DB
:101370001616170618060906089500240A94121670
:101380001306140605060895092E0394000C11F4A3
:10139000882352F0BB0F40F4BF2B11F460FF04C050
:1013A0006F5F7F4F8F4F9F4F089557FD9058440FA9
:1013B000551F59F05F3F71F04795880F97FB991FB4
:1013C00061F09F3F79F08795089512161306140671
:1013D000551FF2CF4695F1DF08C0161617061806FE
:1013E000991FF1CF86957105610508940895E5DF91
:1013F000A0F0BEE7B91788F4BB279F3860F4161633
:10140000B11D672F782F8827985FF7CF869577953E
:101410006795B11D93959639C8F30895E894BB2755
:1014200066277727CB0197F908954ADF08F48FEFF5
:1014300008950EF08ACF97CF689466CFBEDFC8F3C9
:101440009923D1F3C6F3DF93CF931F930F93FF92AA
:10145000C92FDD2788232AF02197660F771F881F61
:10146000DAF720E030E040E85FEB9FE3883920F0D6
:10147000803E30F021968F77D7DDE8E6F0E003C0BC
:10148000D3DDE5E9F0E07DD08B01BE01EC01FB2E60
:101490006F5771097595771F880B990BC3DE28E18B
:1014A00032E741E35FE316D0AF2D9801AE01FF9024
:1014B0000F911F91CF91DF91C8DD66CF0BD064CF24
:1014C00055DF28F05ADF18F0952309F01DCF4BCFD8
:1014D0001124A5CF6ADFA0F3959FD1F3950F50E0BB
:1014E000551F629FF001729FBB27F00DB11D639FD6
:1014F000AA27F00DB11DAA1F649F6627B00DA11D7C
:10150000661F829F2227B00DA11D621F739FB00D21
:10151000A11D621F839FA00D611D221F749F332791
:10152000A00D611D231F849F600D211D822F762F2A
:101530006A2F11249F5750408AF0E1F088234AF027
:10154000EE0FFF1FBB1F661F771F881F9150504073
:10155000A9F79E3F510570F0D7CE61CF5F3FECF306
:10156000983EDCF3869577956795B795F795E7955F
:101570009F5FC1F7FE2B880F911D9695879597F970
:101580000895DF93CF931F930F93FF92EF92DF9213
:101590007B018C01689405C0DA2EEF019BDFFE0110
:1015A000E894A5912591359145915591AEF3EF01C0
:1015B0004CDDFE019701A801DA9479F7DF90EF90F6
:1015C000FF900F911F91CF91DF9108952F923F923D
:1015D0004F925F926F927F928F929F92AF92BF9243
:1015E000CF92DF92EF92FF920F931F93CF93DF93EF
:1015F000CDB7DEB7CA1BDB0B0FB6F894DEBF0FBE4C
:10160000CDBF09942A88398848885F846E847D8498
:101610008C849B84AA84B984C884DF80EE80FD809A
:101620000C811B81AA81B981CE0FD11D0FB6F89410
:10163000DEBF0FBECDBFED010895283008F027E0D2
:101640003327DA01990F311D87FD916000966105FE
:10165000710539F432602E5F3D9330E32A95E1F74E
:1016600008959F3F30F080387105610509F03C5FB7
:101670003C5F3D93913008F08068911DDF93CF93DC
:101680001F930F93FF92EF92192F987F9695E92F52
:1016900096959695E90FFF27EC5DFE4F9927332726
:1016A000EE24FF24A701E70105900894079428F48D
:1016B000360FE71EF81E491F511D660F771F881F42
:1016C000991F0694A1F70590079428F4E70EF81ED9
:1016D000491F561FC11D770F881F991F661F06944B
:1016E000A1F70590079428F4F80E491F561FC71F4D
:1016F000D11D880F991F661F771F0694A1F70590CB
:10170000079420F4490F561FC71FD81F990F661F53
:10171000771F881F0694A9F784911095177041F0E0
:10172000D695C79557954795F794E7941A95C1F7BD
:10173000EAECF0E0689415901591359165919591DA
:1017400005907FE27395E118F10A430B560BC90B24
:10175000D009C0F7E10CF11E431F561FC91FD01D51
:101760007EF4703311F48A95E6CFE894015030F09E
:10177000080F0AF40027021708F4202F2395022FE0
:101780007A3328F079E37D932A95E9F710C07D93A9
:101790002A9589F606949795679537951795179426
:1017A000E118F10A430B560BC90BD00998F02395A9
:1017B0007E9173957A3308F070E37C932013B8F729
:1017C0007E9170617D9330F0839571E37D9370E33A
:1017D0002A95E1F71124EF90FF900F911F91CF917F
:1017E000DF91992787FD90950895FC010590615040
:1017F00070400110D8F7809590958E0F9F1F089527
:10180000FC016150704001900110D8F780959095CF
:101810008E0F9F1F08950F931F93CF93DF938C011B
:10182000EB018B8181FF1BC082FF0DC02E813F81A8
:101830008C819D812817390764F4E881F98101932F
:10184000F983E88306C0E885F985802F0995892BFF
:1018500031F48E819F8101969F838E8302C00FEFAA
:101860001FEFC801DF91CF911F910F910895AEE056
:10187000B0E0EDE3FCE00C94F40A0D891E8986E0EB
:101880008C831A8309838FEF9FE79E838D839E014C
:10189000275E3F4FCE0101966F89788DA9010E9486
:1018A0008C042F813885020F131FF80110822E96A9
:1018B000E4E00C94100BFA01AA27283051F12031F2
:1018C00081F1E8946F936E7F6E5F7F4F8F4F9F4FD4
:1018D000AF4FB1E03ED0B4E03CD0670F781F891F16
:1018E0009A1FA11D680F791F8A1F911DA11D6A0FE4
:1018F000711D811D911DA11D20D009F468943F9197
:101900002AE0269F11243019305D3193DEF6CF0195
:101910000895462F4770405D4193B3E00FD0C9F75B
:10192000F6CF462F4F70405D4A3318F0495D31FDC8
:101930004052419302D0A9F7EACFB4E0A69597951B
:10194000879577956795BA95C9F7009761057105F1
:1019500008959B01AC010A2E06945795479537953B
:101960002795BA95C9F7620F731F841F951FA01D95
:061970000895F894FFCF7A
:10197600496E697469616C2054656D706572617435
:10198600757265203D2025302E32662043656C73C6
:101996006975730A0D5461726765742054656D70BC
:1019A60065726174757265203D2025302E32660A97
:1019B6000D43757272656E742054656D7065726143
:1019C60074757265203D2025302E32660A0D5057FB
:1019D6004D2044757479204379636C65203D20253C
:0A19E600302E32660A0D0A0D0000D3
:00000001FF
